{
  "contractName": "MetadataRegistry",
  "abi": [
    {
      "anonymous": false,
      "inputs": [
        {
          "indexed": true,
          "name": "property",
          "type": "address"
        },
        {
          "indexed": false,
          "name": "hyperlink",
          "type": "string"
        }
      ],
      "name": "LinkSet",
      "type": "event"
    },
    {
      "anonymous": false,
      "inputs": [
        {
          "indexed": true,
          "name": "property",
          "type": "address"
        },
        {
          "indexed": false,
          "name": "numLink",
          "type": "uint256"
        }
      ],
      "name": "LinkRemoved",
      "type": "event"
    },
    {
      "constant": false,
      "inputs": [
        {
          "name": "_property",
          "type": "address"
        },
        {
          "name": "_hyperlink",
          "type": "string"
        }
      ],
      "name": "setLink",
      "outputs": [],
      "payable": false,
      "stateMutability": "nonpayable",
      "type": "function"
    },
    {
      "constant": false,
      "inputs": [
        {
          "name": "_property",
          "type": "address"
        },
        {
          "name": "_num",
          "type": "uint256"
        }
      ],
      "name": "removeLink",
      "outputs": [],
      "payable": false,
      "stateMutability": "nonpayable",
      "type": "function"
    },
    {
      "constant": true,
      "inputs": [
        {
          "name": "_property",
          "type": "address"
        },
        {
          "name": "_num",
          "type": "uint256"
        }
      ],
      "name": "getLink",
      "outputs": [
        {
          "name": "_hyperlink",
          "type": "string"
        }
      ],
      "payable": false,
      "stateMutability": "view",
      "type": "function"
    },
    {
      "constant": true,
      "inputs": [
        {
          "name": "_property",
          "type": "address"
        }
      ],
      "name": "getNumLinks",
      "outputs": [
        {
          "name": "",
          "type": "uint256"
        }
      ],
      "payable": false,
      "stateMutability": "view",
      "type": "function"
    }
  ],
  "bytecode": "0x608060405234801561001057600080fd5b50610995806100206000396000f300608060405260043610610062576000357c0100000000000000000000000000000000000000000000000000000000900463ffffffff168063112e62a2146100675780631a767d1b1461012d578063ebfc6fe8146101b6578063f108b1fe14610203575b600080fd5b34801561007357600080fd5b506100b2600480360381019080803573ffffffffffffffffffffffffffffffffffffffff1690602001909291908035906020019092919050505061025a565b6040518080602001828103825283818151815260200191508051906020019080838360005b838110156100f25780820151818401526020810190506100d7565b50505050905090810190601f16801561011f5780820380516001836020036101000a031916815260200191505b509250505060405180910390f35b34801561013957600080fd5b506101b4600480360381019080803573ffffffffffffffffffffffffffffffffffffffff169060200190929190803590602001908201803590602001908080601f0160208091040260200160405190810160405280939291908181526020018383808284378201915050505050509192919290505050610355565b005b3480156101c257600080fd5b50610201600480360381019080803573ffffffffffffffffffffffffffffffffffffffff169060200190929190803590602001909291905050506104db565b005b34801561020f57600080fd5b50610244600480360381019080803573ffffffffffffffffffffffffffffffffffffffff1690602001909291905050506107aa565b6040518082815260200191505060405180910390f35b60606000808473ffffffffffffffffffffffffffffffffffffffff1673ffffffffffffffffffffffffffffffffffffffff168152602001908152602001600020600201828154811015156102aa57fe5b906000526020600020018054600181600116156101000203166002900480601f0160208091040260200160405190810160405280929190818152602001828054600181600116156101000203166002900480156103485780601f1061031d57610100808354040283529160200191610348565b820191906000526020600020905b81548152906001019060200180831161032b57829003601f168201915b5050505050905092915050565b6000808373ffffffffffffffffffffffffffffffffffffffff1673ffffffffffffffffffffffffffffffffffffffff1681526020019081526020016000206002018190806001815401808255809150509060018203906000526020600020016000909192909190915090805190602001906103d19291906107f5565b50506000808373ffffffffffffffffffffffffffffffffffffffff1673ffffffffffffffffffffffffffffffffffffffff168152602001908152602001600020600301600081548092919060010191905055508173ffffffffffffffffffffffffffffffffffffffff167f307b54e357ad28bc322a19284737ada20ebdd473df6d58cd4aca28d0d99c74f2826040518080602001828103825283818151815260200191508051906020019080838360005b8381101561049d578082015181840152602081019050610482565b50505050905090810190601f1680156104ca5780820380516001836020036101000a031916815260200191505b509250505060405180910390a25050565b6000806000808573ffffffffffffffffffffffffffffffffffffffff1673ffffffffffffffffffffffffffffffffffffffff168152602001908152602001600020600301541415151561052d57600080fd5b8190505b60016000808573ffffffffffffffffffffffffffffffffffffffff1673ffffffffffffffffffffffffffffffffffffffff168152602001908152602001600020600301540381101561065d576000808473ffffffffffffffffffffffffffffffffffffffff1673ffffffffffffffffffffffffffffffffffffffff168152602001908152602001600020600201600182018154811015156105ce57fe5b906000526020600020016000808573ffffffffffffffffffffffffffffffffffffffff1673ffffffffffffffffffffffffffffffffffffffff1681526020019081526020016000206002018281548110151561062657fe5b90600052602060002001908054600181600116156101000203166002900461064f929190610875565b508080600101915050610531565b6000808473ffffffffffffffffffffffffffffffffffffffff1673ffffffffffffffffffffffffffffffffffffffff16815260200190815260200160002060020160016000808673ffffffffffffffffffffffffffffffffffffffff1673ffffffffffffffffffffffffffffffffffffffff16815260200190815260200160002060030154038154811015156106ef57fe5b90600052602060002001600061070591906108fc565b6000808473ffffffffffffffffffffffffffffffffffffffff1673ffffffffffffffffffffffffffffffffffffffff16815260200190815260200160002060030160008154809291906001900391905055503373ffffffffffffffffffffffffffffffffffffffff167f7797729365faace2de241145f732a8f81af7571d5a3c7deac73664d67478447f836040518082815260200191505060405180910390a2505050565b60008060008373ffffffffffffffffffffffffffffffffffffffff1673ffffffffffffffffffffffffffffffffffffffff168152602001908152602001600020600301549050919050565b828054600181600116156101000203166002900490600052602060002090601f016020900481019282601f1061083657805160ff1916838001178555610864565b82800160010185558215610864579182015b82811115610863578251825591602001919060010190610848565b5b5090506108719190610944565b5090565b828054600181600116156101000203166002900490600052602060002090601f016020900481019282601f106108ae57805485556108eb565b828001600101855582156108eb57600052602060002091601f016020900482015b828111156108ea5782548255916001019190600101906108cf565b5b5090506108f89190610944565b5090565b50805460018160011615610100020316600290046000825580601f106109225750610941565b601f0160209004906000526020600020908101906109409190610944565b5b50565b61096691905b8082111561096257600081600090555060010161094a565b5090565b905600a165627a7a723058202b60153749ca21a004548b17fafda28e8c1020c3631e43252fc89ffa46766b240029",
  "source": "pragma solidity ^0.4.23;\n\ncontract MetadataRegistry\n{\n    \n    mapping(address => Link) propertylink;\n    \n    struct Link\n    {\n        address owner;\n        address property;\n \t    string[] hyperlink;\n        uint numLinks;       \n    }\n\n\tevent LinkSet(address indexed property, string hyperlink);\n\n\tevent LinkRemoved(address indexed property, uint numLink);\n\n\tfunction setLink(address _property, string memory _hyperlink)\n\tpublic\n\t{\n\t\tpropertylink[_property].hyperlink.push(_hyperlink);\n\t\tpropertylink[_property].numLinks++;\n\n\t\temit LinkSet(_property, _hyperlink);\t\t\n\t}\n\t\n\t\n\tfunction removeLink(address _property, uint _num)\n\tpublic\n\t{\n\t\trequire(propertylink[_property].numLinks != 0);\n\t\t//require(msg.sender == propertylink[_property].owner);\n\t\t\n\t\tfor (uint i = _num; i < propertylink[_property].numLinks-1; i++)\n\t\t{\n\t\t\tpropertylink[_property].hyperlink[i] = propertylink[_property].hyperlink[i+1];\n\t\t}\n\n        delete propertylink[_property].hyperlink[propertylink[_property].numLinks-1];\n\t\tpropertylink[_property].numLinks--;        \n\n\t\temit LinkRemoved(msg.sender, _num);\n\t}\n\t\n\t\n\tfunction getLink(address _property, uint _num)\n\tpublic\n\tview\n\treturns (string memory _hyperlink)\n\t{\n\t\treturn propertylink[_property].hyperlink[_num];\n\t}\n\t\n\n\n\tfunction getNumLinks(address _property)\n\tpublic \n\tview\n\treturns (uint)\n\t{\n\t\treturn propertylink[_property].numLinks;\n\t}\n}\n",
  "sourcePath": "/home/harry/Desktop/real-estate/contracts/MetadataRegistry.sol",
  "compiler": {
    "name": "solc",
    "version": "0.4.24+commit.e67f0147.Emscripten.clang"
  },
  "schemaVersion": "2.0.1",
  "updatedAt": "2019-03-14T06:55:53.834Z"
}