{
  "contractName": "PropertyRegistry",
  "abi": [
    {
      "constant": true,
      "inputs": [
        {
          "name": "",
          "type": "uint256"
        }
      ],
      "name": "keys",
      "outputs": [
        {
          "name": "",
          "type": "address"
        }
      ],
      "payable": false,
      "stateMutability": "view",
      "type": "function"
    },
    {
      "constant": true,
      "inputs": [],
      "name": "owner",
      "outputs": [
        {
          "name": "",
          "type": "address"
        }
      ],
      "payable": false,
      "stateMutability": "view",
      "type": "function"
    },
    {
      "constant": true,
      "inputs": [],
      "name": "numSps",
      "outputs": [
        {
          "name": "",
          "type": "uint256"
        }
      ],
      "payable": false,
      "stateMutability": "view",
      "type": "function"
    },
    {
      "inputs": [],
      "payable": false,
      "stateMutability": "nonpayable",
      "type": "constructor"
    },
    {
      "anonymous": false,
      "inputs": [
        {
          "indexed": true,
          "name": "owner",
          "type": "address"
        },
        {
          "indexed": false,
          "name": "_alias",
          "type": "string"
        },
        {
          "indexed": false,
          "name": "_geoHash",
          "type": "string"
        }
      ],
      "name": "PropertyAdded",
      "type": "event"
    },
    {
      "constant": false,
      "inputs": [
        {
          "name": "_alias",
          "type": "string"
        },
        {
          "name": "_geoHash",
          "type": "string"
        }
      ],
      "name": "addProperty",
      "outputs": [
        {
          "name": "_newProperty",
          "type": "address"
        },
        {
          "name": "_keyslength",
          "type": "uint256"
        }
      ],
      "payable": false,
      "stateMutability": "nonpayable",
      "type": "function"
    },
    {
      "constant": true,
      "inputs": [
        {
          "name": "addr",
          "type": "address"
        }
      ],
      "name": "getProperty",
      "outputs": [
        {
          "name": "creator",
          "type": "address"
        },
        {
          "name": "alias",
          "type": "string"
        },
        {
          "name": "geoHash",
          "type": "string"
        }
      ],
      "payable": false,
      "stateMutability": "view",
      "type": "function"
    }
  ],
  "bytecode": "0x608060405234801561001057600080fd5b50336000806101000a81548173ffffffffffffffffffffffffffffffffffffffff021916908373ffffffffffffffffffffffffffffffffffffffff160217905550611321806100606000396000f30060806040526004361061006d576000357c0100000000000000000000000000000000000000000000000000000000900463ffffffff1680630cb6aaf1146100725780638da5cb5b146100df578063952ba6d414610136578063e545248d14610291578063f4d6dbaa14610387575b600080fd5b34801561007e57600080fd5b5061009d600480360381019080803590602001909291905050506103b2565b604051808273ffffffffffffffffffffffffffffffffffffffff1673ffffffffffffffffffffffffffffffffffffffff16815260200191505060405180910390f35b3480156100eb57600080fd5b506100f46103f0565b604051808273ffffffffffffffffffffffffffffffffffffffff1673ffffffffffffffffffffffffffffffffffffffff16815260200191505060405180910390f35b34801561014257600080fd5b50610177600480360381019080803573ffffffffffffffffffffffffffffffffffffffff169060200190929190505050610415565b604051808473ffffffffffffffffffffffffffffffffffffffff1673ffffffffffffffffffffffffffffffffffffffff1681526020018060200180602001838103835285818151815260200191508051906020019080838360005b838110156101ed5780820151818401526020810190506101d2565b50505050905090810190601f16801561021a5780820380516001836020036101000a031916815260200191505b50838103825284818151815260200191508051906020019080838360005b83811015610253578082015181840152602081019050610238565b50505050905090810190601f1680156102805780820380516001836020036101000a031916815260200191505b509550505050505060405180910390f35b34801561029d57600080fd5b5061033e600480360381019080803590602001908201803590602001908080601f0160208091040260200160405190810160405280939291908181526020018383808284378201915050505050509192919290803590602001908201803590602001908080601f0160208091040260200160405190810160405280939291908181526020018383808284378201915050505050509192919290505050610649565b604051808373ffffffffffffffffffffffffffffffffffffffff1673ffffffffffffffffffffffffffffffffffffffff1681526020018281526020019250505060405180910390f35b34801561039357600080fd5b5061039c610aac565b6040518082815260200191505060405180910390f35b6003818154811015156103c157fe5b906000526020600020016000915054906101000a900473ffffffffffffffffffffffffffffffffffffffff1681565b6000809054906101000a900473ffffffffffffffffffffffffffffffffffffffff1681565b6000606080600260008573ffffffffffffffffffffffffffffffffffffffff1673ffffffffffffffffffffffffffffffffffffffff16815260200190815260200160002060000160009054906101000a900473ffffffffffffffffffffffffffffffffffffffff169250600260008573ffffffffffffffffffffffffffffffffffffffff1673ffffffffffffffffffffffffffffffffffffffff1681526020019081526020016000206001018054600181600116156101000203166002900480601f0160208091040260200160405190810160405280929190818152602001828054600181600116156101000203166002900480156105555780601f1061052a57610100808354040283529160200191610555565b820191906000526020600020905b81548152906001019060200180831161053857829003601f168201915b50505050509150600260008573ffffffffffffffffffffffffffffffffffffffff1673ffffffffffffffffffffffffffffffffffffffff1681526020019081526020016000206002018054600181600116156101000203166002900480601f0160208091040260200160405190810160405280929190818152602001828054600181600116156101000203166002900480156106325780601f1061060757610100808354040283529160200191610632565b820191906000526020600020905b81548152906001019060200180831161061557829003601f168201915b505050505090508282829250925092509193909250565b6000806000338585610659610ab2565b808473ffffffffffffffffffffffffffffffffffffffff1673ffffffffffffffffffffffffffffffffffffffff1681526020018060200180602001838103835285818151815260200191508051906020019080838360005b838110156106cc5780820151818401526020810190506106b1565b50505050905090810190601f1680156106f95780820380516001836020036101000a031916815260200191505b50838103825284818151815260200191508051906020019080838360005b83811015610732578082015181840152602081019050610717565b50505050905090810190601f16801561075f5780820380516001836020036101000a031916815260200191505b5095505050505050604051809103906000f080158015610783573d6000803e3d6000fd5b50905060038190806001815401808255809150509060018203906000526020600020016000909192909190916101000a81548173ffffffffffffffffffffffffffffffffffffffff021916908373ffffffffffffffffffffffffffffffffffffffff1602179055505084600260008373ffffffffffffffffffffffffffffffffffffffff1673ffffffffffffffffffffffffffffffffffffffff1681526020019081526020016000206001019080519060200190610842929190610ac2565b5083600260008373ffffffffffffffffffffffffffffffffffffffff1673ffffffffffffffffffffffffffffffffffffffff1681526020019081526020016000206002019080519060200190610899929190610ac2565b5033600260008373ffffffffffffffffffffffffffffffffffffffff1673ffffffffffffffffffffffffffffffffffffffff16815260200190815260200160002060000160006101000a81548173ffffffffffffffffffffffffffffffffffffffff021916908373ffffffffffffffffffffffffffffffffffffffff160217905550600380549050600260008373ffffffffffffffffffffffffffffffffffffffff1673ffffffffffffffffffffffffffffffffffffffff168152602001908152602001600020600301819055506001600081548092919060010191905055508073ffffffffffffffffffffffffffffffffffffffff167fd22debfc48e74fe5915cc9a1da976747c12413e36d9e94b28bd85d540c137a0d8686604051808060200180602001838103835285818151815260200191508051906020019080838360005b838110156109f75780820151818401526020810190506109dc565b50505050905090810190601f168015610a245780820380516001836020036101000a031916815260200191505b50838103825284818151815260200191508051906020019080838360005b83811015610a5d578082015181840152602081019050610a42565b50505050905090810190601f168015610a8a5780820380516001836020036101000a031916815260200191505b5094505050505060405180910390a28060038054905092509250509250929050565b60015481565b60405161078e80610b6883390190565b828054600181600116156101000203166002900490600052602060002090601f016020900481019282601f10610b0357805160ff1916838001178555610b31565b82800160010185558215610b31579182015b82811115610b30578251825591602001919060010190610b15565b5b509050610b3e9190610b42565b5090565b610b6491905b80821115610b60576000816000905550600101610b48565b5090565b905600608060405260405161078e38038061078e833981018060405281019080805190602001909291908051820192919060200180518201929190505050826000806101000a81548173ffffffffffffffffffffffffffffffffffffffff021916908373ffffffffffffffffffffffffffffffffffffffff16021790555060056000809054906101000a900473ffffffffffffffffffffffffffffffffffffffff1690806001815401808255809150509060018203906000526020600020016000909192909190916101000a81548173ffffffffffffffffffffffffffffffffffffffff021916908373ffffffffffffffffffffffffffffffffffffffff1602179055505033600160006101000a81548173ffffffffffffffffffffffffffffffffffffffff021916908373ffffffffffffffffffffffffffffffffffffffff1602179055508160039080519060200190610158929190610178565b50806004908051906020019061016f929190610178565b5050505061021d565b828054600181600116156101000203166002900490600052602060002090601f016020900481019282601f106101b957805160ff19168380011785556101e7565b828001600101855582156101e7579182015b828111156101e65782518255916020019190600101906101cb565b5b5090506101f491906101f8565b5090565b61021a91905b808211156102165760008160009055506001016101fe565b5090565b90565b6105628061022c6000396000f300608060405260043610610083576000357c0100000000000000000000000000000000000000000000000000000000900463ffffffff16806308e44f88146100885780632dceee2e1461011857806382a79afa1461016f5780638da5cb5b146101dc578063a79cc09b14610233578063dabf5f9e146102c3578063f7260d3e146102ee575b600080fd5b34801561009457600080fd5b5061009d610345565b6040518080602001828103825283818151815260200191508051906020019080838360005b838110156100dd5780820151818401526020810190506100c2565b50505050905090810190601f16801561010a5780820380516001836020036101000a031916815260200191505b509250505060405180910390f35b34801561012457600080fd5b5061012d6103e3565b604051808273ffffffffffffffffffffffffffffffffffffffff1673ffffffffffffffffffffffffffffffffffffffff16815260200191505060405180910390f35b34801561017b57600080fd5b5061019a60048036038101908080359060200190929190505050610409565b604051808273ffffffffffffffffffffffffffffffffffffffff1673ffffffffffffffffffffffffffffffffffffffff16815260200191505060405180910390f35b3480156101e857600080fd5b506101f1610447565b604051808273ffffffffffffffffffffffffffffffffffffffff1673ffffffffffffffffffffffffffffffffffffffff16815260200191505060405180910390f35b34801561023f57600080fd5b5061024861046c565b6040518080602001828103825283818151815260200191508051906020019080838360005b8381101561028857808201518184015260208101905061026d565b50505050905090810190601f1680156102b55780820380516001836020036101000a031916815260200191505b509250505060405180910390f35b3480156102cf57600080fd5b506102d861050a565b6040518082815260200191505060405180910390f35b3480156102fa57600080fd5b50610303610510565b604051808273ffffffffffffffffffffffffffffffffffffffff1673ffffffffffffffffffffffffffffffffffffffff16815260200191505060405180910390f35b60048054600181600116156101000203166002900480601f0160208091040260200160405190810160405280929190818152602001828054600181600116156101000203166002900480156103db5780601f106103b0576101008083540402835291602001916103db565b820191906000526020600020905b8154815290600101906020018083116103be57829003601f168201915b505050505081565b600160009054906101000a900473ffffffffffffffffffffffffffffffffffffffff1681565b60058181548110151561041857fe5b906000526020600020016000915054906101000a900473ffffffffffffffffffffffffffffffffffffffff1681565b6000809054906101000a900473ffffffffffffffffffffffffffffffffffffffff1681565b60038054600181600116156101000203166002900480601f0160208091040260200160405190810160405280929190818152602001828054600181600116156101000203166002900480156105025780601f106104d757610100808354040283529160200191610502565b820191906000526020600020905b8154815290600101906020018083116104e557829003601f168201915b505050505081565b60065481565b600260009054906101000a900473ffffffffffffffffffffffffffffffffffffffff16815600a165627a7a723058202f768a57953566aaa2a7ef405dbdfc31830d4a6590dcf6038f4e237f4a9c366b0029a165627a7a723058208cfa25e38e5fdc69b2a47e5d86b37ad0a5278185eeceac5db2445f0e1029d47f0029",
  "source": "pragma solidity ^0.4.22;\n\ncontract Property  \n{\n    \n    address public owner;\n\taddress public registry_address;\n    address public receiver;\n    string public alias;\n    string public geohash;\n    address[] public ownerhistory;\n\tuint public ownertransfercount;\n    \n    mapping(address => uint) paymentpool;\n\tmapping(bytes32 => bytes32) keyvaluestore;\n    \n    function Property(address _owner, string _alias, string _geohash)\n    public\n    payable \n    {\n        owner = _owner;\n\t\townerhistory.push(owner);\n\t\tregistry_address = msg.sender;\n        alias = _alias;\n        geohash = _geohash;\n    }\n}\n\ncontract PropertyRegistry\n{\n    address public owner;\n    uint public numSps;\n    mapping(address => Unit) records;\n    address[] public keys;\n    \n    // events\n    event PropertyAdded(address indexed owner, string _alias, string _geoHash);\n    \n    // structs    \n    struct  Unit\n    {\n        address creator;\n        string alias;\n        string geoHash; \n        uint keysIndex;\n    }\n    \n    function PropertyRegistry()\n    public\n    {\n        owner = msg.sender;\n    }\n    \n    function addProperty(string _alias, string _geoHash) \n    public\n\treturns (address _newProperty, uint _keyslength)\n    {\n        Property newProperty = new Property(msg.sender, _alias, _geoHash);\n        // newProperty.changeOwner(msg.sender);\n        keys.push(newProperty);\n        records[newProperty].alias = _alias;\n        records[newProperty].geoHash = _geoHash;\n        records[newProperty].creator = msg.sender;\n        records[newProperty].keysIndex = keys.length;\n        numSps++;\n        emit PropertyAdded(newProperty, _alias, _geoHash);\n\t\treturn (address(newProperty), keys.length);\n    }\n    \n    function getProperty(address addr) \n    public\n    view\n    returns (address creator, string alias, string geoHash) \n    {\n        creator = records[addr].creator;\n        alias = records[addr].alias;\n        geoHash = records[addr].geoHash;\n\t\treturn (creator, alias, geoHash);\n    }\n    \n} ",
  "sourcePath": "/home/harry/Desktop/real-estate/contracts/PropertyRegistry.sol",
  "compiler": {
    "name": "solc",
    "version": "0.4.24+commit.e67f0147.Emscripten.clang"
  },
  "schemaVersion": "2.0.1",
  "updatedAt": "2019-03-13T03:32:40.877Z"
}