{
  "contractName": "Property",
  "abi": [
    {
      "constant": true,
      "inputs": [],
      "name": "creator",
      "outputs": [
        {
          "name": "",
          "type": "address"
        }
      ],
      "payable": false,
      "stateMutability": "view",
      "type": "function"
    },
    {
      "constant": true,
      "inputs": [],
      "name": "geohash",
      "outputs": [
        {
          "name": "",
          "type": "string"
        }
      ],
      "payable": false,
      "stateMutability": "view",
      "type": "function"
    },
    {
      "constant": true,
      "inputs": [],
      "name": "alias",
      "outputs": [
        {
          "name": "",
          "type": "string"
        }
      ],
      "payable": false,
      "stateMutability": "view",
      "type": "function"
    },
    {
      "inputs": [
        {
          "name": "_owner",
          "type": "address"
        },
        {
          "name": "_alias",
          "type": "string"
        },
        {
          "name": "_geohash",
          "type": "string"
        }
      ],
      "payable": false,
      "stateMutability": "nonpayable",
      "type": "constructor"
    }
  ],
  "bytecode": "0x608060405234801561001057600080fd5b506040516104d13803806104d1833981018060405281019080805190602001909291908051820192919060200180518201929190505050826000806101000a81548173ffffffffffffffffffffffffffffffffffffffff021916908373ffffffffffffffffffffffffffffffffffffffff160217905550816001908051906020019061009d9291906100bd565b5080600290805190602001906100b49291906100bd565b50505050610162565b828054600181600116156101000203166002900490600052602060002090601f016020900481019282601f106100fe57805160ff191683800117855561012c565b8280016001018555821561012c579182015b8281111561012b578251825591602001919060010190610110565b5b509050610139919061013d565b5090565b61015f91905b8082111561015b576000816000905550600101610143565b5090565b90565b610360806101716000396000f300608060405260043610610057576000357c0100000000000000000000000000000000000000000000000000000000900463ffffffff16806302d05d3f1461005c57806308e44f88146100b3578063a79cc09b14610143575b600080fd5b34801561006857600080fd5b506100716101d3565b604051808273ffffffffffffffffffffffffffffffffffffffff1673ffffffffffffffffffffffffffffffffffffffff16815260200191505060405180910390f35b3480156100bf57600080fd5b506100c86101f8565b6040518080602001828103825283818151815260200191508051906020019080838360005b838110156101085780820151818401526020810190506100ed565b50505050905090810190601f1680156101355780820380516001836020036101000a031916815260200191505b509250505060405180910390f35b34801561014f57600080fd5b50610158610296565b6040518080602001828103825283818151815260200191508051906020019080838360005b8381101561019857808201518184015260208101905061017d565b50505050905090810190601f1680156101c55780820380516001836020036101000a031916815260200191505b509250505060405180910390f35b6000809054906101000a900473ffffffffffffffffffffffffffffffffffffffff1681565b60028054600181600116156101000203166002900480601f01602080910402602001604051908101604052809291908181526020018280546001816001161561010002031660029004801561028e5780601f106102635761010080835404028352916020019161028e565b820191906000526020600020905b81548152906001019060200180831161027157829003601f168201915b505050505081565b60018054600181600116156101000203166002900480601f01602080910402602001604051908101604052809291908181526020018280546001816001161561010002031660029004801561032c5780601f106103015761010080835404028352916020019161032c565b820191906000526020600020905b81548152906001019060200180831161030f57829003601f168201915b5050505050815600a165627a7a72305820bcddcb7f9e48a9cdef47ec2f63096940fbdffb21e96bc7e115b2c075415604a40029",
  "source": "pragma solidity ^0.4.22;\n\ncontract Property  \n{\n    address public creator;\n    string public alias;\n    string public geohash;\n        \n    constructor(address _owner, string memory _alias, string memory _geohash)\n    public\n    {\n        creator = _owner;\n        alias = _alias;\n        geohash = _geohash;\n    }\n}\n\ncontract PropertyRegistry\n{\n    address public owner;\n    mapping(address => Unit) records;\n    \n    // events\n    event PropertyAdded(address indexed _creator, string _alias, string _geohash, string _placetype, string _bedandbath, string _location, string _amenities);\n    \n    // structs    \n    struct  Unit\n    {\n        address creator;\n        string alias;\n        string geohash; \n        string placetype;\n        string bedandbath;\n        string location;\n        string amenities;\n        uint active;\n    }\n    \n    constructor()\n    public\n    {\n        owner = msg.sender;\n    }\n    \n    function addProperty(string memory _alias, string memory _geohash, string memory _place, string memory _bab, string memory _locat, string memory _amenit) \n    public\n\treturns (address _newProperty)\n    {\n        Property newProperty = new Property(msg.sender, _alias, _geohash);\n        records[newProperty].creator = msg.sender;\n        records[newProperty].alias = _alias;\n        records[newProperty].geohash = _geohash;\n        records[newProperty].placetype = _place;\n        records[newProperty].bedandbath = _bab;\n        records[newProperty].location = _locat;\n        records[newProperty].amenities = _amenit;\n        records[newProperty].active = 1;\n\n        emit PropertyAdded(msg.sender, _alias, _geohash, _place, _bab, _locat, _amenit);\n\t\treturn (address(newProperty));\n    }\n    \n    function getProperty(address addr) \n    public\n    view\n    returns (address _creator, string memory _alias, string memory _geohash, string memory _place, string memory _bab, string memory _locat, string memory _amenit, uint _acti) \n    {\n        _creator = records[addr].creator;\n        _alias = records[addr].alias;\n        _geohash = records[addr].geohash;\n        _place = records[addr].placetype;\n        _bab = records[addr].bedandbath;\n        _locat = records[addr].location;\n        _amenit = records[addr].amenities;\n        _acti = records[addr].active;\n\t\treturn (_creator, _alias, _geohash, _place, _bab, _locat, _amenit, _acti);\n    }\n    \n} ",
  "sourcePath": "/home/harry/Desktop/real-estate/contracts/PropertyRegistry.sol",
  "compiler": {
    "name": "solc",
    "version": "0.4.24+commit.e67f0147.Emscripten.clang"
  },
  "schemaVersion": "2.0.1",
  "updatedAt": "2019-03-14T06:55:52.674Z"
}