{
  "contractName": "Property",
  "abi": [
    {
      "constant": true,
      "inputs": [],
      "name": "creator",
      "outputs": [
        {
          "name": "",
          "type": "address"
        }
      ],
      "payable": false,
      "stateMutability": "view",
      "type": "function"
    },
    {
      "constant": true,
      "inputs": [],
      "name": "geohash",
      "outputs": [
        {
          "name": "",
          "type": "string"
        }
      ],
      "payable": false,
      "stateMutability": "view",
      "type": "function"
    },
    {
      "constant": true,
      "inputs": [],
      "name": "alias_",
      "outputs": [
        {
          "name": "",
          "type": "string"
        }
      ],
      "payable": false,
      "stateMutability": "view",
      "type": "function"
    },
    {
      "inputs": [
        {
          "name": "_owner",
          "type": "address"
        },
        {
          "name": "_alias",
          "type": "string"
        },
        {
          "name": "_geohash",
          "type": "string"
        }
      ],
      "payable": false,
      "stateMutability": "nonpayable",
      "type": "constructor"
    }
  ],
  "bytecode": "0x608060405234801561001057600080fd5b506040516104d13803806104d1833981018060405281019080805190602001909291908051820192919060200180518201929190505050826000806101000a81548173ffffffffffffffffffffffffffffffffffffffff021916908373ffffffffffffffffffffffffffffffffffffffff160217905550816001908051906020019061009d9291906100bd565b5080600290805190602001906100b49291906100bd565b50505050610162565b828054600181600116156101000203166002900490600052602060002090601f016020900481019282601f106100fe57805160ff191683800117855561012c565b8280016001018555821561012c579182015b8281111561012b578251825591602001919060010190610110565b5b509050610139919061013d565b5090565b61015f91905b8082111561015b576000816000905550600101610143565b5090565b90565b610360806101716000396000f300608060405260043610610057576000357c0100000000000000000000000000000000000000000000000000000000900463ffffffff16806302d05d3f1461005c57806308e44f88146100b357806370122f7f14610143575b600080fd5b34801561006857600080fd5b506100716101d3565b604051808273ffffffffffffffffffffffffffffffffffffffff1673ffffffffffffffffffffffffffffffffffffffff16815260200191505060405180910390f35b3480156100bf57600080fd5b506100c86101f8565b6040518080602001828103825283818151815260200191508051906020019080838360005b838110156101085780820151818401526020810190506100ed565b50505050905090810190601f1680156101355780820380516001836020036101000a031916815260200191505b509250505060405180910390f35b34801561014f57600080fd5b50610158610296565b6040518080602001828103825283818151815260200191508051906020019080838360005b8381101561019857808201518184015260208101905061017d565b50505050905090810190601f1680156101c55780820380516001836020036101000a031916815260200191505b509250505060405180910390f35b6000809054906101000a900473ffffffffffffffffffffffffffffffffffffffff1681565b60028054600181600116156101000203166002900480601f01602080910402602001604051908101604052809291908181526020018280546001816001161561010002031660029004801561028e5780601f106102635761010080835404028352916020019161028e565b820191906000526020600020905b81548152906001019060200180831161027157829003601f168201915b505050505081565b60018054600181600116156101000203166002900480601f01602080910402602001604051908101604052809291908181526020018280546001816001161561010002031660029004801561032c5780601f106103015761010080835404028352916020019161032c565b820191906000526020600020905b81548152906001019060200180831161030f57829003601f168201915b5050505050815600a165627a7a7230582003a46c633946e801d3653f4d64b2f6bc9a4d54c22aebeee21463e290888278580029",
  "source": "pragma solidity ^0.4.22;\n\ncontract Property  \n{\n    address public creator;\n    string public alias_;\n    string public geohash;\n        \n    constructor(address _owner, string memory _alias, string memory _geohash)\n    public\n    {\n        creator = _owner;\n        alias_ = _alias;\n        geohash = _geohash;\n    }\n}\n\ncontract PropertyRegistry\n{\n    address public owner;\n    mapping(address => Unit) records;\n    mapping(int => address) numsProp;\n    mapping(address => mapping(int => Payment)) paymentpool;\n    int numspro;\n    \n    // events\n    event PropertyAdded(address _newProperty, address indexed _creator, string _alias, string _geohash, string _placetype, string _bedandbath, string _location, string _amenities);\n    event SentRequest(address _property, address _renter, string _s_time, string _e_time, int _guests, string _timesentrq);\n    event AcceptRequest(address _property, address _renter, int _numrq);\n    event RejectRequest(address _property, address _renter, int _numrq);\n    \n    // structs    \n    struct  Unit\n    {\n        address creator;\n        string alias_;\n        string geohash; \n        string placetype;\n        string bedandbath;\n        string location;\n        string amenities;\n        uint active;\n        int num;\n        int paymentcount;\n    }\n\n    struct Payment\n    {\n        address renter;\n        string s_time;\n        string e_time;\n        int guests;\n        string timesentrq;\n        string status;\n    }\n    \n    constructor()\n    public\n    {\n        owner = msg.sender;\n    }\n    \n    function addProperty(string memory _alias, string memory _geohash, string memory _place, string memory _bab, string memory _locat, string memory _amenit) \n    public\n    {\n        Property newProperty = new Property(msg.sender, _alias, _geohash);\n        records[newProperty].creator = msg.sender;\n        records[newProperty].alias_ = _alias;\n        records[newProperty].geohash = _geohash;\n        records[newProperty].placetype = _place;\n        records[newProperty].bedandbath = _bab;\n        records[newProperty].location = _locat;\n        records[newProperty].amenities = _amenit;\n        records[newProperty].active = 1;\n        records[newProperty].num = numspro;\n        \n        numsProp[numspro] = address(newProperty);\n        numspro++;\n        emit PropertyAdded(address(newProperty), msg.sender, _alias, _geohash, _place, _bab, _locat, _amenit);\n    }\n    \n    function getProperty(address addr) \n    public\n    view\n    returns (address _creator, string memory _alias, string memory _geohash, string memory _place, string memory _bab, string memory _locat, string memory _amenit, uint _acti) \n    {\n        _creator = records[addr].creator;\n        _alias = records[addr].alias_;\n        _geohash = records[addr].geohash;\n        _place = records[addr].placetype;\n        _bab = records[addr].bedandbath;\n        _locat = records[addr].location;\n        _amenit = records[addr].amenities;\n        _acti = records[addr].active;\n\t\treturn (_creator, _alias, _geohash, _place, _bab, _locat, _amenit, _acti);\n    }\n    \n    function getaddr(int _num)\n    public\n    view\n    returns (address _addr)\n    {\n        return (numsProp[_num]);\n    }\n    \n    function getinfoProperty(int _num)\n    public\n    view\n    returns (address addr, string memory _alias, string memory _place, string memory _location)\n    {\n        addr = numsProp[_num];\n        _alias = records[addr].alias_;\n        _place = records[addr].placetype;\n        _location = records[addr].location;\n        return (addr, _alias, _place, _location);\n    }\n    \n    function requesttorent(address _property, address _renter, string _s_time, string _e_time, int _guests, string _timesentrq)\n    public\n    {\n        Payment memory newPayment;\n        newPayment.renter = _renter;\n        newPayment.s_time = _s_time;\n        newPayment.e_time = _e_time;\n        newPayment.guests = _guests;\n        newPayment.timesentrq = _timesentrq;\n        newPayment.status = \"Waiting\";\n        paymentpool[_property][records[_property].paymentcount] = newPayment;\n        records[_property].paymentcount++;\n        emit SentRequest(_property, _renter, _s_time, _e_time, _guests, _timesentrq);\n    }\n    \n    // address owner use in require\n    function acceptrequest(address _property, int _numrq)\n    public\n    {\n        paymentpool[_property][_numrq].status = \"Accepted\";\n        emit AcceptRequest(_property, paymentpool[_property][_numrq].renter, _numrq);\n    }\n    \n    function rejectrequest(address _property, int _numrq)\n    public\n    {\n        require(records[_property].paymentcount != 0);\n        for(int i = _numrq; i < records[_property].paymentcount-1; i++)\n        {\n            paymentpool[_property][i] = paymentpool[_property][i+1];\n        }\n        delete paymentpool[_property][records[_property].paymentcount-1];\n        records[_property].paymentcount--; \n        emit RejectRequest(_property, paymentpool[_property][_numrq].renter, _numrq);\n    }\n} ",
  "sourcePath": "/home/harry/Desktop/real-estate/contracts/PropertyRegistry.sol",
  "compiler": {
    "name": "solc",
    "version": "0.4.24+commit.e67f0147.Emscripten.clang"
  },
  "schemaVersion": "2.0.1",
  "updatedAt": "2019-04-01T12:08:29.231Z"
}