{
  "contractName": "PropertyRegistry",
  "abi": [
    {
      "constant": true,
      "inputs": [],
      "name": "owner",
      "outputs": [
        {
          "name": "",
          "type": "address"
        }
      ],
      "payable": false,
      "stateMutability": "view",
      "type": "function"
    },
    {
      "inputs": [],
      "payable": false,
      "stateMutability": "nonpayable",
      "type": "constructor"
    },
    {
      "anonymous": false,
      "inputs": [
        {
          "indexed": true,
          "name": "_creator",
          "type": "address"
        },
        {
          "indexed": false,
          "name": "_alias",
          "type": "string"
        },
        {
          "indexed": false,
          "name": "_geohash",
          "type": "string"
        },
        {
          "indexed": false,
          "name": "_placetype",
          "type": "string"
        },
        {
          "indexed": false,
          "name": "_bedandbath",
          "type": "string"
        },
        {
          "indexed": false,
          "name": "_location",
          "type": "string"
        },
        {
          "indexed": false,
          "name": "_amenities",
          "type": "string"
        }
      ],
      "name": "PropertyAdded",
      "type": "event"
    },
    {
      "constant": false,
      "inputs": [
        {
          "name": "_alias",
          "type": "string"
        },
        {
          "name": "_geohash",
          "type": "string"
        },
        {
          "name": "_place",
          "type": "string"
        },
        {
          "name": "_bab",
          "type": "string"
        },
        {
          "name": "_locat",
          "type": "string"
        },
        {
          "name": "_amenit",
          "type": "string"
        }
      ],
      "name": "addProperty",
      "outputs": [
        {
          "name": "_newProperty",
          "type": "address"
        }
      ],
      "payable": false,
      "stateMutability": "nonpayable",
      "type": "function"
    },
    {
      "constant": true,
      "inputs": [
        {
          "name": "addr",
          "type": "address"
        }
      ],
      "name": "getProperty",
      "outputs": [
        {
          "name": "_creator",
          "type": "address"
        },
        {
          "name": "_alias",
          "type": "string"
        },
        {
          "name": "_geohash",
          "type": "string"
        },
        {
          "name": "_place",
          "type": "string"
        },
        {
          "name": "_bab",
          "type": "string"
        },
        {
          "name": "_locat",
          "type": "string"
        },
        {
          "name": "_amenit",
          "type": "string"
        },
        {
          "name": "_acti",
          "type": "uint256"
        }
      ],
      "payable": false,
      "stateMutability": "view",
      "type": "function"
    }
  ],
  "bytecode": "0x608060405234801561001057600080fd5b50336000806101000a81548173ffffffffffffffffffffffffffffffffffffffff021916908373ffffffffffffffffffffffffffffffffffffffff16021790555061189a806100606000396000f300608060405260043610610057576000357c0100000000000000000000000000000000000000000000000000000000900463ffffffff16806367a505271461005c5780638da5cb5b14610263578063952ba6d4146102ba575b600080fd5b34801561006857600080fd5b50610221600480360381019080803590602001908201803590602001908080601f0160208091040260200160405190810160405280939291908181526020018383808284378201915050505050509192919290803590602001908201803590602001908080601f0160208091040260200160405190810160405280939291908181526020018383808284378201915050505050509192919290803590602001908201803590602001908080601f0160208091040260200160405190810160405280939291908181526020018383808284378201915050505050509192919290803590602001908201803590602001908080601f0160208091040260200160405190810160405280939291908181526020018383808284378201915050505050509192919290803590602001908201803590602001908080601f0160208091040260200160405190810160405280939291908181526020018383808284378201915050505050509192919290803590602001908201803590602001908080601f01602080910402602001604051908101604052809392919081815260200183838082843782019150505050505091929192905050506105cc565b604051808273ffffffffffffffffffffffffffffffffffffffff1673ffffffffffffffffffffffffffffffffffffffff16815260200191505060405180910390f35b34801561026f57600080fd5b50610278610cbb565b604051808273ffffffffffffffffffffffffffffffffffffffff1673ffffffffffffffffffffffffffffffffffffffff16815260200191505060405180910390f35b3480156102c657600080fd5b506102fb600480360381019080803573ffffffffffffffffffffffffffffffffffffffff169060200190929190505050610ce0565b604051808973ffffffffffffffffffffffffffffffffffffffff1673ffffffffffffffffffffffffffffffffffffffff16815260200180602001806020018060200180602001806020018060200188815260200187810387528e818151815260200191508051906020019080838360005b8381101561038757808201518184015260208101905061036c565b50505050905090810190601f1680156103b45780820380516001836020036101000a031916815260200191505b5087810386528d818151815260200191508051906020019080838360005b838110156103ed5780820151818401526020810190506103d2565b50505050905090810190601f16801561041a5780820380516001836020036101000a031916815260200191505b5087810385528c818151815260200191508051906020019080838360005b83811015610453578082015181840152602081019050610438565b50505050905090810190601f1680156104805780820380516001836020036101000a031916815260200191505b5087810384528b818151815260200191508051906020019080838360005b838110156104b957808201518184015260208101905061049e565b50505050905090810190601f1680156104e65780820380516001836020036101000a031916815260200191505b5087810383528a818151815260200191508051906020019080838360005b8381101561051f578082015181840152602081019050610504565b50505050905090810190601f16801561054c5780820380516001836020036101000a031916815260200191505b50878103825289818151815260200191508051906020019080838360005b8381101561058557808201518184015260208101905061056a565b50505050905090810190601f1680156105b25780820380516001836020036101000a031916815260200191505b509e50505050505050505050505050505060405180910390f35b6000803388886105da6112e8565b808473ffffffffffffffffffffffffffffffffffffffff1673ffffffffffffffffffffffffffffffffffffffff1681526020018060200180602001838103835285818151815260200191508051906020019080838360005b8381101561064d578082015181840152602081019050610632565b50505050905090810190601f16801561067a5780820380516001836020036101000a031916815260200191505b50838103825284818151815260200191508051906020019080838360005b838110156106b3578082015181840152602081019050610698565b50505050905090810190601f1680156106e05780820380516001836020036101000a031916815260200191505b5095505050505050604051809103906000f080158015610704573d6000803e3d6000fd5b50905033600160008373ffffffffffffffffffffffffffffffffffffffff1673ffffffffffffffffffffffffffffffffffffffff16815260200190815260200160002060000160006101000a81548173ffffffffffffffffffffffffffffffffffffffff021916908373ffffffffffffffffffffffffffffffffffffffff16021790555087600160008373ffffffffffffffffffffffffffffffffffffffff1673ffffffffffffffffffffffffffffffffffffffff16815260200190815260200160002060010190805190602001906107de9291906112f8565b5086600160008373ffffffffffffffffffffffffffffffffffffffff1673ffffffffffffffffffffffffffffffffffffffff16815260200190815260200160002060020190805190602001906108359291906112f8565b5085600160008373ffffffffffffffffffffffffffffffffffffffff1673ffffffffffffffffffffffffffffffffffffffff168152602001908152602001600020600301908051906020019061088c9291906112f8565b5084600160008373ffffffffffffffffffffffffffffffffffffffff1673ffffffffffffffffffffffffffffffffffffffff16815260200190815260200160002060040190805190602001906108e39291906112f8565b5083600160008373ffffffffffffffffffffffffffffffffffffffff1673ffffffffffffffffffffffffffffffffffffffff168152602001908152602001600020600501908051906020019061093a9291906112f8565b5082600160008373ffffffffffffffffffffffffffffffffffffffff1673ffffffffffffffffffffffffffffffffffffffff16815260200190815260200160002060060190805190602001906109919291906112f8565b5060018060008373ffffffffffffffffffffffffffffffffffffffff1673ffffffffffffffffffffffffffffffffffffffff168152602001908152602001600020600701819055503373ffffffffffffffffffffffffffffffffffffffff167fd773a2a74b5131f6dcce78e9346f312ce171e954898b2ced01c116c52834d4668989898989896040518080602001806020018060200180602001806020018060200187810387528d818151815260200191508051906020019080838360005b83811015610a6b578082015181840152602081019050610a50565b50505050905090810190601f168015610a985780820380516001836020036101000a031916815260200191505b5087810386528c818151815260200191508051906020019080838360005b83811015610ad1578082015181840152602081019050610ab6565b50505050905090810190601f168015610afe5780820380516001836020036101000a031916815260200191505b5087810385528b818151815260200191508051906020019080838360005b83811015610b37578082015181840152602081019050610b1c565b50505050905090810190601f168015610b645780820380516001836020036101000a031916815260200191505b5087810384528a818151815260200191508051906020019080838360005b83811015610b9d578082015181840152602081019050610b82565b50505050905090810190601f168015610bca5780820380516001836020036101000a031916815260200191505b50878103835289818151815260200191508051906020019080838360005b83811015610c03578082015181840152602081019050610be8565b50505050905090810190601f168015610c305780820380516001836020036101000a031916815260200191505b50878103825288818151815260200191508051906020019080838360005b83811015610c69578082015181840152602081019050610c4e565b50505050905090810190601f168015610c965780820380516001836020036101000a031916815260200191505b509c5050505050505050505050505060405180910390a2809150509695505050505050565b6000809054906101000a900473ffffffffffffffffffffffffffffffffffffffff1681565b60006060806060806060806000600160008a73ffffffffffffffffffffffffffffffffffffffff1673ffffffffffffffffffffffffffffffffffffffff16815260200190815260200160002060000160009054906101000a900473ffffffffffffffffffffffffffffffffffffffff169750600160008a73ffffffffffffffffffffffffffffffffffffffff1673ffffffffffffffffffffffffffffffffffffffff1681526020019081526020016000206001018054600181600116156101000203166002900480601f016020809104026020016040519081016040528092919081815260200182805460018160011615610100020316600290048015610e285780601f10610dfd57610100808354040283529160200191610e28565b820191906000526020600020905b815481529060010190602001808311610e0b57829003601f168201915b50505050509650600160008a73ffffffffffffffffffffffffffffffffffffffff1673ffffffffffffffffffffffffffffffffffffffff1681526020019081526020016000206002018054600181600116156101000203166002900480601f016020809104026020016040519081016040528092919081815260200182805460018160011615610100020316600290048015610f055780601f10610eda57610100808354040283529160200191610f05565b820191906000526020600020905b815481529060010190602001808311610ee857829003601f168201915b50505050509550600160008a73ffffffffffffffffffffffffffffffffffffffff1673ffffffffffffffffffffffffffffffffffffffff1681526020019081526020016000206003018054600181600116156101000203166002900480601f016020809104026020016040519081016040528092919081815260200182805460018160011615610100020316600290048015610fe25780601f10610fb757610100808354040283529160200191610fe2565b820191906000526020600020905b815481529060010190602001808311610fc557829003601f168201915b50505050509450600160008a73ffffffffffffffffffffffffffffffffffffffff1673ffffffffffffffffffffffffffffffffffffffff1681526020019081526020016000206004018054600181600116156101000203166002900480601f0160208091040260200160405190810160405280929190818152602001828054600181600116156101000203166002900480156110bf5780601f10611094576101008083540402835291602001916110bf565b820191906000526020600020905b8154815290600101906020018083116110a257829003601f168201915b50505050509350600160008a73ffffffffffffffffffffffffffffffffffffffff1673ffffffffffffffffffffffffffffffffffffffff1681526020019081526020016000206005018054600181600116156101000203166002900480601f01602080910402602001604051908101604052809291908181526020018280546001816001161561010002031660029004801561119c5780601f106111715761010080835404028352916020019161119c565b820191906000526020600020905b81548152906001019060200180831161117f57829003601f168201915b50505050509250600160008a73ffffffffffffffffffffffffffffffffffffffff1673ffffffffffffffffffffffffffffffffffffffff1681526020019081526020016000206006018054600181600116156101000203166002900480601f0160208091040260200160405190810160405280929190818152602001828054600181600116156101000203166002900480156112795780601f1061124e57610100808354040283529160200191611279565b820191906000526020600020905b81548152906001019060200180831161125c57829003601f168201915b50505050509150600160008a73ffffffffffffffffffffffffffffffffffffffff1673ffffffffffffffffffffffffffffffffffffffff168152602001908152602001600020600701549050878787878787878797509750975097509750975097509750919395975091939597565b6040516104d18061139e83390190565b828054600181600116156101000203166002900490600052602060002090601f016020900481019282601f1061133957805160ff1916838001178555611367565b82800160010185558215611367579182015b8281111561136657825182559160200191906001019061134b565b5b5090506113749190611378565b5090565b61139a91905b8082111561139657600081600090555060010161137e565b5090565b905600608060405234801561001057600080fd5b506040516104d13803806104d1833981018060405281019080805190602001909291908051820192919060200180518201929190505050826000806101000a81548173ffffffffffffffffffffffffffffffffffffffff021916908373ffffffffffffffffffffffffffffffffffffffff160217905550816001908051906020019061009d9291906100bd565b5080600290805190602001906100b49291906100bd565b50505050610162565b828054600181600116156101000203166002900490600052602060002090601f016020900481019282601f106100fe57805160ff191683800117855561012c565b8280016001018555821561012c579182015b8281111561012b578251825591602001919060010190610110565b5b509050610139919061013d565b5090565b61015f91905b8082111561015b576000816000905550600101610143565b5090565b90565b610360806101716000396000f300608060405260043610610057576000357c0100000000000000000000000000000000000000000000000000000000900463ffffffff16806302d05d3f1461005c57806308e44f88146100b3578063a79cc09b14610143575b600080fd5b34801561006857600080fd5b506100716101d3565b604051808273ffffffffffffffffffffffffffffffffffffffff1673ffffffffffffffffffffffffffffffffffffffff16815260200191505060405180910390f35b3480156100bf57600080fd5b506100c86101f8565b6040518080602001828103825283818151815260200191508051906020019080838360005b838110156101085780820151818401526020810190506100ed565b50505050905090810190601f1680156101355780820380516001836020036101000a031916815260200191505b509250505060405180910390f35b34801561014f57600080fd5b50610158610296565b6040518080602001828103825283818151815260200191508051906020019080838360005b8381101561019857808201518184015260208101905061017d565b50505050905090810190601f1680156101c55780820380516001836020036101000a031916815260200191505b509250505060405180910390f35b6000809054906101000a900473ffffffffffffffffffffffffffffffffffffffff1681565b60028054600181600116156101000203166002900480601f01602080910402602001604051908101604052809291908181526020018280546001816001161561010002031660029004801561028e5780601f106102635761010080835404028352916020019161028e565b820191906000526020600020905b81548152906001019060200180831161027157829003601f168201915b505050505081565b60018054600181600116156101000203166002900480601f01602080910402602001604051908101604052809291908181526020018280546001816001161561010002031660029004801561032c5780601f106103015761010080835404028352916020019161032c565b820191906000526020600020905b81548152906001019060200180831161030f57829003601f168201915b5050505050815600a165627a7a72305820bcddcb7f9e48a9cdef47ec2f63096940fbdffb21e96bc7e115b2c075415604a40029a165627a7a723058207cf560b855c73bde59af3ec13636300fb22496247a59c74aace38bbc4bb944f90029",
  "source": "pragma solidity ^0.4.22;\n\ncontract Property  \n{\n    address public creator;\n    string public alias;\n    string public geohash;\n        \n    constructor(address _owner, string memory _alias, string memory _geohash)\n    public\n    {\n        creator = _owner;\n        alias = _alias;\n        geohash = _geohash;\n    }\n}\n\ncontract PropertyRegistry\n{\n    address public owner;\n    mapping(address => Unit) records;\n    \n    // events\n    event PropertyAdded(address indexed _creator, string _alias, string _geohash, string _placetype, string _bedandbath, string _location, string _amenities);\n    \n    // structs    \n    struct  Unit\n    {\n        address creator;\n        string alias;\n        string geohash; \n        string placetype;\n        string bedandbath;\n        string location;\n        string amenities;\n        uint active;\n    }\n    \n    constructor()\n    public\n    {\n        owner = msg.sender;\n    }\n    \n    function addProperty(string memory _alias, string memory _geohash, string memory _place, string memory _bab, string memory _locat, string memory _amenit) \n    public\n\treturns (address _newProperty)\n    {\n        Property newProperty = new Property(msg.sender, _alias, _geohash);\n        records[newProperty].creator = msg.sender;\n        records[newProperty].alias = _alias;\n        records[newProperty].geohash = _geohash;\n        records[newProperty].placetype = _place;\n        records[newProperty].bedandbath = _bab;\n        records[newProperty].location = _locat;\n        records[newProperty].amenities = _amenit;\n        records[newProperty].active = 1;\n\n        emit PropertyAdded(msg.sender, _alias, _geohash, _place, _bab, _locat, _amenit);\n\t\treturn (address(newProperty));\n    }\n    \n    function getProperty(address addr) \n    public\n    view\n    returns (address _creator, string memory _alias, string memory _geohash, string memory _place, string memory _bab, string memory _locat, string memory _amenit, uint _acti) \n    {\n        _creator = records[addr].creator;\n        _alias = records[addr].alias;\n        _geohash = records[addr].geohash;\n        _place = records[addr].placetype;\n        _bab = records[addr].bedandbath;\n        _locat = records[addr].location;\n        _amenit = records[addr].amenities;\n        _acti = records[addr].active;\n\t\treturn (_creator, _alias, _geohash, _place, _bab, _locat, _amenit, _acti);\n    }\n    \n} ",
  "sourcePath": "/home/harry/Desktop/real-estate/contracts/PropertyRegistry.sol",
  "compiler": {
    "name": "solc",
    "version": "0.4.24+commit.e67f0147.Emscripten.clang"
  },
  "schemaVersion": "2.0.1",
  "updatedAt": "2019-03-14T06:55:53.846Z"
}